:100000000EC0189518951895189518951895189567
:10001000189518951895189518951895189500E045
:100020000DB90EB907BB08BB1FE010BD10E215BF2C
:100030000BBF10E816BD10E016BD1FE51DBF11E097
:100040001EBF0FBF00C0B89A05E0B02E00E2A02E80
:1000500004E0D02E00E6C02ED2D0F5D003D088D058
:10006000BED0FBCFFF93EF93DF93CF933F931F93CC
:100070002F93F60100EC332731930A95E9F7F60147
:10008000E5010ED0F6012A960BD0F6012A9608D08B
:100090002F911F913F91CF91DF91EF91FF910895A3
:1000A00018812981169516951695169516952695FB
:1000B0002695322F2695269526953873312B432F7A
:1000C000330F340FE30F08F4F3954C815D816E819B
:1000D000408351836283469546954695569556953D
:1000E0005695669566956695103029F0339740834E
:1000F000518362833396173029F0339640835183BE
:1001000062833397203029F078974083518362834C
:100110007896273029F078964083518362837897C8
:10012000469556956695103039F0203029F07B972A
:100130004083518362837B96173039F0273029F052
:100140007B964083518362837B97173039F0203050
:1001500029F075974083518362837596103039F08A
:10016000273029F0759640835183628375970895EF
:10017000FF93EF932F931F930F93F60100EC2191C0
:1001800018E0220F78F0C09A000000000000000084
:100190000000C09800000000000000000000000007
:1001A000000013C0C09A0000000000000000000022
:1001B0000000000000000000000000000000C098E7
:1001C000000000000000000000001A95D1F60A951A
:1001D000B1F60F911F912F91EF91FF9108950F9319
:1001E0001F932F9322E010E800E00A95F1F71A958B
:1001F000E1F72A95D1F72F911F910F910895FF9361
:10020000EF93DF93CF930F930F92E501F2E0E8E2D3
:100210000EE1059009920A95E1F70F900F91CF91A9
:10022000DF91EF91FF910895424605F112521305B7
:1002300008F3D7DD0CF4531C610508F3AA7708FA1C
:100240001160220508F3DF93CF932F931F930F9331
:10025000E5010AD02A9608D02A9606D00F911F9160
:100260002F91CF91DF91089508811A8117D00883CB
:100270001A8309811B8112D009831B830C811F8182
:1002800019D00C831F830D81188514D00D83188716
:100290000E8119850FD00E8319870895003118F447
:1002A0001BD0102D05C0013F18F016D00094102D62
:1002B000010F0895003128F40FD006940694102DF4
:1002C00009C0013738F008D00694069406940694C5
:1002D0000094102D010F08950F9308D00FE0002116
:1002E000053008F405E0002E0F910895DF93CF93B9
:1002F0000F931F93E5011EE109910795019507955D
:10030000000E1A95C9F71F910F91CF91DF910895B3
:00000001FF
