:1000000033C0000073C00000189500001895000070
:10001000189500001895000018950000189500002C
:10002000189500001895000018950000189500001C
:10003000189500001895000018950000189500000C
:1000400018950000189500001895000018950000FC
:1000500018950000189500001895000018950000EC
:10006000189500001895000000E004B905B907B91B
:1000700008B90AB914E01BB905BB11E01DBB04BDEA
:1000800005BD06BD07BD08BD0CBD0DBD13BF05BF39
:100090001FEE1093640012E01093690000936E004D
:1000A0000093B8000093B9001EEF1093BA000093BC
:1000B000BC000093BD000093C0000093C10016E097
:1000C0001093C2000093C4000093C50011E015BF57
:1000D00010E015BF10E81093610010E0109361006C
:1000E0001FEF1DBF18E01EBF0FBF12C020E2112777
:1000F00000270A95F1F71A95E1F72A95D1F71FEF36
:100100001DBF18E01EBF10E01FBF00E40ABF07C0FC
:10011000209AC2E0D1E0ECE4F1E0E883F983112415
:10012000C2E0D1E0E881F981A591B5910A2E0B2AB0
:1001300021F4ECE4F1E0A591B591E883F983FD01A8
:1001400004E011E0789409958895FECFAF00B300E4
:10015000B800BD00C200C900D000D7000000C8012F
:10016000D2D2C80152C3C80160E070D3C8018BC3AA
:10017000C80161E06BD3C80186C3C80161E013D434
:10018000C8012BC4C8016FEF40E020E049D3C8018B
:100190004CC3C80160E04FEF20E042D3C80145C323
:1001A000C80160E040E02FEF3BD3C8013EC3C80167
:1001B0006FE34FE32FE334D3C80137C368E0880F00
:1001C00058F0289A00000000000000002898000065
:1001D0000000000000000DC0289A00000000000090
:1001E000000000000000000000000000289800004F
:1001F00000006A9521F7089500000000000000004B
:1002000008950F931F932F9322E010E000E00A95CA
:10021000F1F71A95E1F72A95D1F72F911F910F91D8
:100220000895660F660F660F682BFA0160830895C4
:10023000982F9770FB01908390E095958795959501
:100240008795959587958770FA0180830895CF9358
:10025000DF93C0ECD0E080E00E94DE002197D9F768
:10026000DF91CF910895FC0170E0758364837383FF
:100270006283718360830895FC017183608353837B
:100280004283358324830895FC01DB0180819181C1
:100290002D913C911197820F931F918380838281CE
:1002A000938112962D913C911397820F931F938304
:1002B00082838481958114962D913C911597820FAC
:1002C000931F958384830895FC01DB0180819181D4
:1002D0002D913C911197821B930B91838083828196
:1002E000938112962D913C911397821B930B9383CC
:1002F00082838481958114962D913C911597821B60
:10030000930B958384830895FC018081918197FDEF
:1003100021C0959587959595879595958795918316
:1003200080838281938197FD19C0959587959595D6
:10033000879595958795938382838481958197FD91
:100340000BC09595879595958795959587959583F8
:10035000848308950796DDCF0796F3CF0796E5CF00
:100360001F93CF93DF93DC0150E04115510509F451
:100370006AC090910001C62FD72FE0E0F0E080E046
:1003800001C0912F11E0190F10930001299130E065
:10039000290F311D9AE52927820F3196E417F507B9
:1003A00080F3982F9F73903108F44DC0807390E0D4
:1003B00011969C938E9390910001C62FD72FE0E069
:1003C000F0E080E001C0912F11E0190F10930001BF
:1003D000299130E0290F311D9AE52927820F3196A6
:1003E000E417F50780F3982F9F739031A8F180737D
:1003F00090E013969C938E93129790910001FB01CD
:1004000060E070E080E001C09C2FC1E0C90FC093A4
:100410000001219130E0290F311D9AE52927820F33
:100420006F5F7F4F6417750778F3982F9F73903134
:10043000E8F480E190E015969C938E931497DF91F9
:10044000CF911F91089580E190E011969C938E9337
:100450004115510509F0AFCF80E190E013969C93D0
:100460008E9312974115510541F6E3CF807390E0CA
:1004700015969C938E931497DF91CF911F910895B9
:1004800050E041155105E1F090910001FB0160E061
:1004900070E080E001C09A2FA1E0A90FA0930001B5
:1004A000219130E0290F311D9AE52927820F6F5FD6
:1004B0007F4F6417750778F3982F9F73903110F46E
:1004C00080E1089580730895CF93DF93EC018A81D2
:1004D0009B819927959587950E94DE008881998157
:1004E0009927959587950E94DE008C819D8199279B
:1004F00095958795DF91CF910C94DE00FC01828168
:100500000895860F911DFC0182810895409100019C
:10051000FC015AE1540F80E001C0492F91E0940F93
:1005200090930001219130E0240F311D4AE52427EA
:10053000820F9513F2CF6230710581F0633071053F
:1005400049F06130710509F008958F70853060F4CD
:1005500085E00895837039F481E0089587708230D2
:1005600098F782E0089508950895CF93DF93EC0102
:10057000CB017983688360E070E00E9486028A8301
:1005800061E070E0888199810E9486028B838A8174
:10059000803F28F08FEE8A83DF91CF9108958031DC
:1005A000D8F780E18A83DF91CF910895CF93DF93CD
:1005B000EC018B819A81282F219587FD15C0921718
:1005C00028F4890F8A83DF91CF91089561E070E06C
:1005D000888199810E94860281958B839A81890FF7
:1005E0008A83DF91CF910895921758F761E070E008
:1005F000888199810E9486028B839A81E2CFCF9372
:10060000DF93EC01CB017983688362E070E00E94A4
:1006100086028D8360E070E0888199810E94860265
:10062000803738F08FE68A831B821C82DF91CF915E
:100630000895883108F488E18A831B821C82DF9147
:10064000CF910895CF93DF93EC01BC010E94B502D6
:10065000BE01CE0104960E94B502BE01CE010896ED
:100660000E94FF02BE01CE010E960E94FF02BE0153
:10067000CE014496DF91CF910C94FF02CF93DF938C
:10068000EC018D819A8187FD12C097FD1BC0890FF7
:100690008A8390E095958795959587958B83959519
:1006A0008795959587958C83DF91CF9108959031AB
:1006B00070F762E070E0888199810E9486028D83E4
:1006C0009A81E5CF63E070E0888199810E9486027B
:1006D00081958D839A81DBCFCF93DF93EC010E94CC
:1006E000D602CE0104960E94D602CE0108960E9440
:1006F0003E03CE010E960E943E03CE014496DF914A
:10070000CF910C943E030F931F93CF93DF93EC0193
:100710008C0108591F4FCE010E9422036A96C01710
:10072000D107C9F7DF91CF911F910F9108959F9243
:10073000AF92BF92CF92DF92EF92FF920F931F93EF
:10074000CF93DF9300D0CDB7DEB78C016C0188E684
:10075000C80ED11C7801C7010E946C039AE1E90E12
:10076000F11CEC14FD04B8F3B12CC80104967C0113
:10077000AE014F5F5F4FBE016E5F7F4F8B2D0E94BA
:1007800018014A813981F80104C07A96EC15FD05FB
:10079000C0F59281929596959770941BDF01A01BEE
:1007A000B10BAE0DBF1D12962C9122952695277088
:1007B000231B97FD919527FD2195923034F7223028
:1007C00024F7920FE90FF11D92848089A6880E9478
:1007D000DE00892D0E94DE008A2D0E94DE00B39487
:1007E00080E4B812C5CF0F900F90DF91CF911F9189
:1007F0000F91FF90EF90DF90CF90BF90AF909F90C0
:100800000895A12C80E0912CE2CF8C01C8010E94B8
:100810009703CFEFDFE70E94FC002197E1F7F6CFC7
:1008200030E050E070E00C943C010F931F93CF93A5
:10083000DF938C01C0E4D0E0C8010E9464022197DC
:10084000D9F7DF91CF911F910F9108950F931F93C7
:10085000CF93DF93FC0160839C01255E3F4F328381
:100860002183EC0129968C010F5D1F4F60E1CE01C1
:100870000E9433012696C017D107C0F3DF91CF91B4
:100880001F910F910895CF93DF9300D000D0CDB783
:10089000DEB78C015C0183E0A80EB11C76E0472E28
:1008A000F8013F966F01C80109969C838B833696A9
:1008B0007F0142963C01E7E05E2E41E2B801C501AE
:1008C0000E94B001F80161817281C5010E9464013A
:1008D000C5010E94840168E0362EF601AB81BC811F
:1008E000842D01900D928A95E1F7F701D601842DB0
:1008F00001900D928A95E1F7F301D701842D0190C3
:100900000D928A95E1F7B501F801818192810E94EB
:100910004401212C2CC0AE014F5F5F4FBE016E5FC2
:100920007F4F822D0E9418012A81243020F0F52D5E
:10093000F21B2F2FFA838981843020F0952D981B8C
:10094000892F9983821710F48A83282F30E0C901F8
:10095000880F991F820F931F880F991F0996800F88
:10096000911F0E9464022394F0E42F1669F0F801AD
:100970008081813081F2F801818192810E9464023C
:100980002394F0E42F12F3CF812C912C0E94FC00D1
:100990008FEF881A980A9FEF89169906B9F73A944B
:1009A00009F09BCF8ACF0F931F93CF93DF93FC0166
:1009B0006083EC012996D283C1838C01075C1F4FB1
:1009C00060E1CE010E9433012696C017D107C0F323
:1009D000DF91CF911F910F910895CF93DF9300D0B6
:1009E000CDB7DEB77C016C0123E0C20ED11C56E00E
:1009F000B52E49E3B701C6010E94B001F70161813C
:100A00007281C6010E946401C6010E94840148E00F
:100A1000A42E80E090E0D701A80FB91FFD01BD967C
:100A2000D3962B2D01900D922A95E1F70697863DDE
:100A3000FFEF9F0781F7B601F701818192810E9444
:100A4000440110E0AE014F5F5F4FBE016E5F7F4F0C
:100A5000812F0E9418014A8150E0CA01880F991F16
:100A6000840F951F880F991F09968E0D9F1D0E9458
:100A700064021F5F103431F700E010E00E94FC00B8
:100A80000F5F1F4F0F3FFFEF1F07C1F7AA9409F039
:040A9000C0CFAFCF55
:00000001FF
