:1000000033C00000189500001895000018950000F6
:10001000189500001895000018950000189500002C
:10002000189500001895000018950000189500001C
:10003000189500001895000018950000189500000C
:1000400018950000189500001895000018950000FC
:1000500018950000189500001895000018950000EC
:10006000189500001895000000E004B905B907B91B
:1000700008B90AB90BB90DBB0CBD0DBD11E013BF1A
:1000800005BF1FEE10936400009369000093B80051
:100090000093B9001EEF1093BA000093BC000093C8
:1000A000BD000093C0000093C10016E01093C20091
:1000B0000093C4000093C50011E015BF10E015BF08
:1000C00010E81093610010E0109361001FEF1DBF56
:1000D00018E01EBF0FBF00C0209A112411E002E0FB
:1000E000C80151D1C801A0D102D038D0FBCFC8017E
:1000F0006ED1EC01C8016CD1E82ED990DD2031F031
:10010000C8016D2DC5D2EA94C1F70895882708D09B
:1001100007D006D005D004D003D0EA9471F7089533
:1001200068E0880F58F0289A0000000000000000E6
:10013000289800000000000000000DC0289A000070
:1001400000000000000000000000000000000000AF
:100150002898000000006A9521F708950F931F93D7
:100160002F9322E010E000E00A95F1F71A95E1F7ED
:100170002A95D1F72F911F910F910895FC0182814B
:100180000895860F911DFC01828108954091000120
:10019000FC015AE1540F80E001C0492F91E0940F17
:1001A00090930001219130E0240F311D4AE524276E
:1001B000820F9513F2CF6230710581F063307105C3
:1001C00049F06130710509F008958F70853060F451
:1001D00085E00895837039F481E008958770823056
:1001E00098F782E0089508950895CF93DF93EC0186
:1001F000CB017983688360E070E00E94C6008A8347
:1002000061E070E0888199810E94C6008B838A81B9
:10021000803F28F08FEE8A83DF91CF91089580315F
:10022000D8F780E18A83DF91CF910895CF93DF9350
:10023000EC018B819A81282F219587FD15C092179B
:1002400028F4890F8A83DF91CF91089561E070E0EF
:10025000888199810E94C60081958B839A81890F3C
:100260008A83DF91CF910895921758F761E070E08B
:10027000888199810E94C6008B839A81E2CFCF93B7
:10028000DF93EC01CB017983688362E070E00E9428
:10029000C6008D8360E070E0888199810E94C6006D
:1002A000803738F08FE68C831B821A82DF91CF91E2
:1002B0000895883108F488E18C831B821A82DF91CB
:1002C000CF910895CF93DF93EC01BC010E94F5001C
:1002D000BE01CE0104960E94F500BE01CE01089633
:1002E0000E943F01BE01CE010E960E943F01BE0159
:1002F000CE014496DF91CF910C943F01CF93DF93D1
:10030000EC018D819C8187FD12C097FD1BC0890F78
:100310008C8390E095958795959587958B8395959A
:100320008795959587958A83DF91CF910895903130
:1003300070F762E070E0888199810E94C6008D8329
:100340009C81E5CF63E070E0888199810E94C600BE
:1003500081958D839C81DBCFCF93DF93EC010E944D
:100360001601CE0104960E941601CE0108960E9445
:100370007E01CE010E960E947E01CE014496DF9151
:10038000CF910C947E010F931F93CF93DF938C0139
:10039000EC01A096CE010E946201C801CA960E949B
:1003A0006201C8018C5A9F4F0E946201F8011192AC
:1003B000EC17FD07E0F3DF91CF911F910F910895A6
:1003C000FC0180961192E817F907E0F3089508956B
:1003D00080E290E00895342F3870330F330F330FDD
:1003E0004770440F440F432B562F56705695542B8D
:1003F000362F3870330F330F352BFC01E30FF11D0F
:1004000037FDFA958081982F60FF05C09F7011F429
:10041000282B20830895907FE9F790E1299F900190
:100420001124282B2083F6CF2F923F924F925F9278
:100430006F927F928F929F92AF92BF92CF92DF92F4
:10044000EF92FF920F931F93CF93DF9300D000D0D2
:100450001F92CDB7DEB76C01FC015C0120E2A20E59
:10046000B11C1192EA15FB05E0F336013EE6630E7E
:10047000711C8501512CC50104964C012EC0352DEF
:100480003860332E21106AC0252D2C6040E06C812D
:10049000C6010E94EB01EE24E394232D41E06C8120
:1004A000C6010E94EB01F7E04F1681F04C804394A7
:1004B000232D40E0642DC6010E94EB01352D3460F0
:1004C000232F4E2D642DC6010E94EB015394065E2E
:1004D0001F4F0615170508F09CC0C8010E94AC010B
:1004E000F8018281282F30E035952795359527959D
:1004F0003595279535952795359527953D832C83FB
:100500004C80EA19FB09E80DF91DE280F12CF59405
:10051000E794F594E794F594E794F594E794F594CB
:10052000E7942E2C442009F4AACFE11046C0E52D13
:10053000E8603E2E5C8151502E2F40E0652FC601B1
:100540005B830E94EB01752D74605B81272F41E076
:100550004E0D652FC6010E94EB0194CF3FEF3E0D7B
:100560003983232D432F6C81C6010E94EB01252D79
:100570002C604E2D6C81C6010E94EB0187E0281291
:1005800060C027E0421609F4A1CF352D34604C80BD
:100590004394232F4981642DC6013A830E94EB01C5
:1005A000232D4E2D642DC6010E94EB013A8197E068
:1005B000291609F48BCFE39483CF752D74605C8189
:1005C00051503FEF3E0D3983272F432F652FC60132
:1005D0005B837A830E94EB01852D8860382E282F5B
:1005E0004E2D5B81652FC6010E94EB015B817A81F4
:1005F00097E0E912ABCF232D46E06C81C6010E9443
:10060000EB01252D2C6047E06C81C6010E94EB01B7
:10061000B8CF0F900F900F900F900F90DF91CF9168
:100620001F910F91FF90EF90DF90CF90BF90AF9010
:100630009F908F907F906F905F904F903F902F9002
:100640000895232D41E04E0D6C81C6010E94EB01FF
:1006500037E043129ACF3ACFCF93DF93262F237000
:10066000EC013AE1239FC00DD11D1124A0966C70BE
:10067000669566956150C60FD11D88890E949000CD
:100680008A850E9490008E89DF91CF910C94900012
:100690001F93CF93DF93EC01162F862F807FD9F025
:1006A00070E07595679575956795759567957595DE
:1006B0006795CE010E942C03812F8F70C1F480E0DA
:1006C0000E94900080E00E94900080E0DF91CF9136
:1006D0001F910C94900080E00E94900080E00E94A6
:1006E000900080E00E949000812F8F7041F3612F75
:0C06F000CE01DF91CF911F910C942C03E0
:00000001FF
