:100000000EC032C018951895189518951895189522
:10001000189518951895189518951895189500E045
:1000200003B904B905B906B907B90DB90EB904BBCE
:1000300007BB14E018BB1FE010BD08BD09BD0ABD19
:100040000FBD00BF02BF03BF12E215BF08BF09BF4B
:1000500010E41BBF10E816BD10E016BD1FE51DBF64
:1000600011E01EBF0FBF12C020E2112700270A9522
:10007000F1F71A95E1F72A95D1F71FE51DBF11E0B9
:100080001EBF10E01FBF00E40ABF07C0B89AC2E657
:10009000D0E0E8ECF0E0E883F9831124C2E6D0E098
:1000A000E881F981A591B5910A2E0B2A21F4E8EC9B
:1000B000F0E0A591B591E883F983FD0104E610E035
:1000C000789409958895FECF6D00710076007B00CD
:1000D000800087008E0095000000C801BCD2C801D6
:1000E00036C3C80160E050D3C8016AC3C80161E0EB
:1000F0004BD3C80165C3C80161E0EAD3C80101C49C
:10010000C8016FEF40E020E02BD3C8012DC3C80128
:1001100060E04FEF20E024D3C80126C3C80160E0AF
:1001200040E02FEF1DD3C8011FC3C8016FE34FE3A9
:100130002FE316D3C80118C368E0880F78F0C09A7F
:1001400000000000000000000000C0980000000057
:100150000000000000000000000013C0C09A000072
:10016000000000000000000000000000000000008F
:10017000000000000000C098000000000000000027
:1001800000006A95D1F6089500000000000000000C
:1001900008950F931F932F9322E010E000E00A953B
:1001A000F1F71A95E1F72A95D1F72F911F910F9149
:1001B0000895660F660F660F862BFA0180830895F7
:1001C000982F9770FB01908390E095958795959572
:1001D0008795959587958770FA0180830895CF93C9
:1001E000DF93C0ECD0E080E0A7DF2197E1F7DF915B
:1001F000CF910895FC0170E07583648373836283FB
:10020000718360830895FC0171836083538342830B
:10021000358324830895FC01DB01208131818D9198
:100220009C911197820F931F918380832281338148
:1002300012968D919C911397820F931F93838283C3
:100240002481358114968D919C911597820F931F6F
:10025000958384830895FC01DB01808191812D9138
:100260003C911197821B930B9183808382819381B0
:1002700012962D913C911397821B930B938382834B
:100280008481958114962D913C911597821B930B37
:10029000958384830895FC018081918197FD21C01D
:1002A0009595879595958795959587959183808365
:1002B0008281938197FD19C095958795959587952E
:1002C00095958795938382838481958197FD0BC053
:1002D000959587959595879595958795958384832D
:1002E00008950796DDCF0796F3CF0796E5CF0F93D6
:1002F0001F93CF93DF93FC0150E04115510509F4A2
:100300006CC090916000DB01EB01C40FD51F892FF9
:1003100000E011E0180F109360002D9130E0280FDD
:10032000311D8AE52827020F812FAC17BD0789F7F9
:10033000940F802F8F73803108F456C00073802F84
:1003400090E09183808390916000EB01A0E0B0E0A9
:1003500010E081E0890F80936000299130E0290F3F
:10036000311D9AE52927120F1196982FA417B5076A
:1003700080F3912F9F739031E0F11073212F30E0C3
:1003800033832283EB01A0E0B0E070E091E0980FAE
:1003900090936000299130E0280F311D8AE52827CD
:1003A000720F1196892FA417B50780F3872F8F73CB
:1003B000803148F480E190E095838483DF91CF9190
:1003C0001F910F9108957073872F90E09583848318
:1003D000DF91CF911F910F91089580E190E091837B
:1003E000808393838283E6CF20E130E031832083D2
:1003F000ACCF20E130E033832283C4CF50E04115FD
:100400005105C9F090916000FB01640F751F80E0F9
:1004100051E0590F50936000219130E0290F311DB8
:100420009AE52927820F952FE617F70789F7982F66
:100430009F73903110F480E1089580730895CF93F5
:10044000DF93EC012A813B813327C901959587957C
:1004500073DE288139813327C901959587956CDE34
:100460008C819D81992795958795DF91CF9164CE59
:10047000FC0182810895860F911DFC0182810895FF
:1004800040916000FC015AE1540F80E091E0940F2C
:1004900090936000219130E0240F311D4AE524271C
:1004A000820F492F9513F2CF6230710581F06330CE
:1004B000710521F06130710529F008958370E9F725
:1004C00081E008958F708530C0F785E008958770CA
:1004D000823098F782E00895CF93DF93EC01CB014F
:1004E0007983688360E070E0CBDF8A8361E070E04D
:1004F00088819981C5DF8B838A81803F28F08FEEC8
:100500008A83DF91CF9108958031D8F780E18A8383
:10051000DF91CF910895CF93DF93EC019B813A81D6
:10052000892F819597FD15C0381728F4930F9A836A
:10053000DF91CF91089561E070E088819981A0DF1B
:1005400081958B833A81982F930F9A83DF91CF9176
:100550000895381758F761E070E08881998190DF3D
:10056000982F8B833A81E2CFCF93DF93EC01CB01BD
:100570007983688362E070E083DF8D8360E070E000
:10058000888199817DDF803738F08FE68A831B82EE
:100590001C82DF91CF910895883108F488E18A8325
:1005A0001B821C82DF91CF910895CF93DF93EC01E2
:1005B000BC0192DFBE01CE0104968EDFBE01CE01EA
:1005C0000896D2DFBE01CE010E96CEDFBE01CE016F
:1005D0004496DF91CF91C8CFCF93DF93EC018D810B
:1005E0009A8187FD13C097FD1BC0980F9A83292F0E
:1005F00030E035952795359527952B8335952795AB
:10060000359527952C83DF91CF910895903168F728
:1006100062E070E08881998133DF8D839A81E5CF34
:1006200063E070E0888199812BDF81958D839A81C9
:10063000DCCFCF93DF93EC016EDFCE0104966BDF4E
:10064000CE010896C9DFCE010E96C6DFCE014496D4
:10065000DF91CF91C1CF0F931F93CF93DF93EC0125
:100660008C0108591F4FCE01A0DF6A96C017D10731
:10067000D1F7DF91CF911F910F9108959F92AF9283
:10068000BF92CF92DF92EF92FF920F931F93CF937F
:10069000DF9300D0CDB7DEB78C016C0188E6C80EC1
:1006A000D11C7801C701C5DF9AE1E90EF11CEC14F9
:1006B000FD04C0F3B12CC80106967C01AE014F5F6A
:1006C0005F4FBE016E5F7F4F8B2D7ADD3A8189814E
:1006D000F701A80106C0465E5F4F7A964C155D058E
:1006E00090F5DF0114979C91929596959770931BC6
:1006F0002081229526952770281B97FD919527FD2F
:100700002195923044F7223034F7920FFA01E90F25
:10071000F11D92848089A6880FDD892D0DDD8A2D3B
:100720000BDDB39490E4B912C9CF0F900F90DF9115
:10073000CF911F910F91FF90EF90DF90CF90BF90DE
:10074000AF909F900895A12C80E0912CE5CF8C0173
:10075000C80194DFCFEFDFE717DD2197E9F7F8CF86
:1007600030E050E070E04FCD0F931F93CF93DF93B5
:100770008C01C0E4D0E0C80162DE2197E1F7DF918F
:10078000CF911F910F9108950F931F93CF93DF93F4
:10079000FC0160839C01255E3F4F32832183EC0185
:1007A00029968C010F5D1F4F60E1CE0123DD269657
:1007B000C017D107C8F3DF91CF911F910F91089512
:1007C000CF93DF9300D000D0CDB7DEB78C015C01B2
:1007D00023E0A20EB11C46E0442E0F966C01F801F6
:1007E0003996FC83EB8306967C0172963F0157E0B5
:1007F000552E41E2B801C5017ADDF80161817281AF
:10080000C50129DDC50147DD38E0332EF601AB8196
:10081000BC81842D01900D928A95E1F7F701D601F4
:10082000842D01900D928A95E1F7F301D701842D73
:1008300001900D928A95E1F7B501F80181819281CD
:10084000EADC212C2BC0AE014F5F5F4FBE016E5F13
:100850007F4F822DB5DC8A81843020F0F52DF81B86
:100860008F2FFA839981943020F0252D291B922F08
:100870002983981710F49A83892F282F30E0280FA6
:10088000311D280F311DC901880F991F0996800F4E
:10089000911FD5DD2394F0E42F1661F0F8018081DB
:1008A000813089F2F80181819281C9DD2394F0E4DD
:1008B0002F12F4CF812C912C67DC2FEF821A920A31
:1008C0008FEF88169806C1F73A9431109FCF91CFD9
:1008D0000F931F93CF93DF93FC016083EC01299664
:1008E000D283C1838C01075C1F4F60E1CE0182DCA3
:1008F0002696C017D107C8F3DF91CF911F910F91B2
:100900000895CF93DF9300D0CDB7DEB78C016C0193
:1009100083E0C80ED11CF801F3965F01C801099667
:100920007C0126E0922E49E3B801C601E0DCF80123
:1009300061817281C6018FDCC601ADDC98E0892E31
:10094000D501CD010697FC01292D01900D922A9524
:10095000E1F7DC018E159F05A1F7B601F801818151
:10096000928159DC712CAE014F5F5F4FBE016E5F0B
:100970007F4F872D25DC8A81282F30E0280F311DFD
:10098000280F311D220F331FC9010996800F911FB7
:1009900056DD7394F0E47F12E6CF612C712CF4DB0A
:1009A0008FEF681A780A9FEF69167906C1F78A9463
:0609B0008110C6CFB8CF94
:00000001FF
