:100000000EC0189518951895189518951895189567
:10001000189518951895189518951895189500E045
:100020000DB90EB907BB08BB1FE010BD10E215BF2C
:100030000BBF10E816BD10E016BD1FE51DBF11E097
:100040001EBF0FBF00C0B89A112410E002E6C8011D
:1000500049D1C80193D102D042D0FBCFC80163D1AE
:10006000EC01C80161D1E82ED990DD2031F0C80142
:100070006D2DAFD2EA94C1F70895882708D007D034
:1000800006D005D004D003D0EA9471F7089568E053
:10009000880F78F0C09A0000000000000000000007
:1000A000C0980000000000000000000000000000F8
:1000B00013C0C09A00000000000000000000000013
:1000C000000000000000000000000000C0980000D8
:1000D00000000000000000006A95D1F608950F931B
:1000E0001F932F9322E010E000E00A95F1F71A9594
:1000F000E1F72A95D1F72F911F910F910895FC01F7
:1001000082810895860F911DFC018281089540919E
:100110006000FC015AE1540F80E001C0492F91E0DA
:10012000940F90936000219130E0240F311D4AE537
:100130002427820F9513F2CF6230710581F063306E
:10014000710549F06130710509F008958F708530AF
:1001500060F485E00895837039F481E00895877034
:10016000823098F782E0089508950895CF93DF9341
:10017000EC01CB017983688360E070E0C8DF8A839B
:1001800061E070E088819981C2DF8B838A81803F42
:1001900028F08FEE8A83DF91CF9108958031D8F7D0
:1001A00080E18A83DF91CF910895CF93DF93EC01B3
:1001B0008B819A81282F219587FD14C0921728F4EE
:1001C000890F8A83DF91CF91089561E070E0888183
:1001D00099819DDF81958B839A81890F8A83DF9135
:1001E000CF910895921760F761E070E0888199815E
:1001F0008EDF8B839A81E4CFCF93DF93EC01CB0129
:100200007983688362E070E082DF8D8360E070E074
:10021000888199817CDF803738F08FE68C831B8260
:100220001A82DF91CF910895883108F488E18C8398
:100230001B821A82DF91CF910895CF93DF93EC0157
:10024000BC0194DFBE01CE01049690DFBE01CE0159
:100250000896D2DFBE01CE010E96CEDFBE01CE01E2
:100260004496DF91CF91C8CFCF93DF93EC018D817E
:100270009C8187FD12C097FD1AC0890F8C8390E086
:1002800095958795959587958B8395958795959564
:1002900087958A83DF91CF910895903170F762E05E
:1002A00070E08881998133DF8D839C81E6CF63E0A4
:1002B00070E0888199812BDF81958D839C81DDCFD2
:1002C000CF93DF93EC0171DFCE0104966EDFCE0198
:1002D0000896CADFCE010E96C7DFCE014496DF91A5
:1002E000CF91C2CF0F931F93CF93DF938C01EC017B
:1002F000A096CE01A2DFC801CA969FDFC8018C5A22
:100300009F4F9BDFF8011192EC17FD07E0F3DF919F
:10031000CF911F910F910895FC0180961192E817DB
:10032000F907E0F30895089580E290E00895342FEE
:100330003870330F330F330F4770440F440F432B84
:10034000562F56705695542B362F3870330F330F67
:10035000352BFC01E30FF11D37FDFA958081982FB5
:1003600060FF05C09F7011F4282B20830895907FB3
:10037000E9F72295207F282B2083F8CF2F923F92F8
:100380004F925F926F927F928F929F92AF92BF92A5
:10039000CF92DF92EF92FF920F931F93CF93DF9351
:1003A00000D000D01F92CDB7DEB76C01FC015C011C
:1003B00020E2A20EB11C1192EA15FB05E0F3360112
:1003C0003EE6630E711C8501512CC50104964C015B
:1003D0002AC0352D3860332E211063C0252D2C60A6
:1003E00040E06C81C601A3DFEE24E394232D41E0BD
:1003F0006C81C6019CDFF7E04F1671F04C8043948E
:10040000232D40E0642DC60192DF352D3460232F6B
:100410004E2D642DC6018BDF5394065E1F4F0615CB
:10042000170508F091C0C8014BDFF8018281282F21
:1004300030E0359527953595279535952795359550
:100440002795359527953D832C834C80EA19FB0928
:10045000E80DF91DE280F12CF594E794F594E7940A
:10046000F594E794F594E794F594E7942E2C4420C2
:1004700009F4AFCFE11040C0E52DE8603E2E5C816D
:1004800051502E2F40E0652FC6015B8350DF752D44
:1004900074605B81272F41E04E0D652FC60147DF59
:1004A0009BCF3FEF3E0D3983232D432F6C81C60137
:1004B0003EDF252D2C604E2D6C81C60138DF87E094
:1004C00028125AC027E0421609F4A6CF352D346011
:1004D0004C804394232F4981642DC6013A8327DF42
:1004E000232D4E2D642DC60122DF3A8197E0291677
:1004F00009F492CFE3948BCF752D74605C815150D9
:100500003FEF3E0D3983272F432F652FC6015B83B5
:100510007A830DDF852D8860382E282F4E2D5B8144
:10052000652FC60104DF5B817A8197E0E912B2CFC3
:10053000232D46E06C81C601FADE252D2C6047E0B4
:100540006C81C601F4DEBECF0F900F900F900F901C
:100550000F90DF91CF911F910F91FF90EF90DF905F
:10056000CF90BF90AF909F908F907F906F905F9053
:100570004F903F902F900895232D41E04E0D6C81B8
:10058000C601D5DE37E04312A1CF46CFCF93DF932C
:10059000262F237030E0E901CC0FDD1FC20FD31FDF
:1005A000CC0FDD1FCC0FDD1FC20FD31FCC0FDD1F03
:1005B000A096C80FD91F6C70669566956150C60FDE
:1005C000D11D888964DD8A8562DD8E89DF91CF91B6
:1005D0005ECD1F93CF93DF93EC01162F862F807F84
:1005E000B9F070E075956795759567957595679500
:1005F00075956795CE01CADF812F8F7091F480E0E9
:1006000046DD80E044DD80E0DF91CF911F913FCD5A
:1006100080E03DDD80E03BDD80E039DD812F8F70C3
:0E06200071F3612FCE01DF91CF911F91AFCF0B
:00000001FF
