:100000000EC02AC01895189518951895189518952A
:10001000189518951895189518951895189500E045
:100020000DB90EB907BB14E018BB1FE010BD08BD29
:1000300009BD0ABD02BF03BF12E215BF08BF09BF59
:1000400010E41BBF10E816BD10E016BD1FE51DBF74
:1000500011E01EBF0FBF12C020E2112700270A9532
:10006000F1F71A95E1F72A95D1F71FE51DBF11E0C9
:100070001EBF10E01FBF00E40ABF07C0B89AC2E667
:10008000D0E0E8EBF0E0E883F9831124C2E6D0E0A9
:10009000E881F981A591B5910A2E0B2A21F4E8EBAC
:1000A000F0E0A591B591E883F983FD0104E610E045
:1000B000789409958895FECF650069006E007300FD
:1000C00078007F0086008D000000C801C6D2C801FC
:1000D00040C3C80160E05AD3C80174C3C80161E0DD
:1000E00055D3C8016FC3C80161E0F4D3C8010BC484
:1000F000C8016FEF40E020E035D3C80137C3C80125
:1001000060E04FEF20E02ED3C80130C3C80160E0AB
:1001100040E02FEF27D3C80129C3C8016FE34FE3A5
:100120002FE320D3C80122C368E0880F78F0C09A7B
:1001300000000000000000000000C0980000000067
:100140000000000000000000000013C0C09A000082
:10015000000000000000000000000000000000009F
:10016000000000000000C098000000000000000037
:1001700000006A95D1F6089500000000000000001C
:1001800008950F931F932F9322E010E000E00A954B
:10019000F1F71A95E1F72A95D1F72F911F910F9159
:1001A0000895660F660F660F682BFA016083089545
:1001B000982F9770FB01908390E095958795959582
:1001C0008795959587958770FA0180830895CF93D9
:1001D000DF93C0ECD0E080E0A7DF2197E1F7DF916B
:1001E000CF910895FC0170E075836483738362830B
:1001F000718360830895FC0171836083538342831C
:10020000358324830895FC01DB01808191812D9148
:100210003C911197820F931F9183808382819381F8
:1002200012962D913C911397820F931F9383828393
:100230008481958114962D913C911597820F931F7F
:10024000958384830895FC01DB01808191812D9148
:100250003C911197821B930B9183808382819381C0
:1002600012962D913C911397821B930B938382835B
:100270008481958114962D913C911597821B930B47
:10028000958384830895FC018081918197FD21C02D
:100290009595879595958795959587959183808375
:1002A0008281938197FD19C095958795959587953E
:1002B00095958795938382838481958197FD0BC063
:1002C000959587959595879595958795958384833D
:1002D00008950796DDCF0796F3CF0796E5CF1F93D6
:1002E000CF93DF93DC0150E04115510509F46AC05A
:1002F00090916000C62FD72FE0E0F0E080E001C0D1
:10030000912F11E0190F10936000299130E0290F0F
:10031000311D9AE52927820F3196E417F50780F3FE
:10032000982F9F73903108F44DC0807390E0119620
:100330009C938E9390916000C62FD72FE0E0F0E061
:1003400080E001C0912F11E0190F109360002991F6
:1003500030E0290F311D9AE52927820F3196E417E5
:10036000F50780F3982F9F739031A8F1807390E088
:1003700013969C938E93129790916000FB0160E01E
:1003800070E080E001C09C2FC1E0C90FC093600005
:10039000219130E0290F311D9AE52927820F6F5FE7
:1003A0007F4F6417750778F3982F9F739031E8F4A7
:1003B00080E190E015969C938E931497DF91CF91F6
:1003C0001F91089580E190E011969C938E934115C2
:1003D000510509F0AFCF80E190E013969C938E9386
:1003E00012974115510541F6E3CF807390E01596C1
:1003F0009C938E931497DF91CF911F91089550E0B5
:1004000041155105E1F090916000FB0160E070E062
:1004100080E001C09A2FA1E0A90FA0936000219174
:1004200030E0290F311D9AE52927820F6F5F7F4F3A
:100430006417750778F3982F9F73903110F480E15B
:10044000089580730895CF93DF93EC018A819B8197
:1004500099279595879568DE888199819927959543
:10046000879562DE8C819D81992795958795DF918F
:10047000CF915ACEFC0182810895860F911DFC0117
:100480008281089540916000FC015AE1540F80E0A0
:1004900001C0492F91E0940F90936000219130E0CA
:1004A000240F311D4AE52427820F9513F2CF6230C5
:1004B000710581F06330710549F06130710509F013
:1004C00008958F70853060F485E00895837039F465
:1004D00081E008958770823098F782E0089508954A
:1004E0000895CF93DF93EC01CB017983688360E0BB
:1004F00070E0C8DF8A8361E070E088819981C2DFA3
:100500008B838A81803F28F08FEE8A83DF91CF91A1
:1005100008958031D8F780E18A83DF91CF910895E3
:10052000CF93DF93EC018B819A81282F219587FD52
:1005300014C0921728F4890F8A83DF91CF91089510
:1005400061E070E0888199819DDF81958B839A813C
:10055000890F8A83DF91CF910895921760F761E048
:1005600070E0888199818EDF8B839A81E4CFCF936D
:10057000DF93EC01CB017983688362E070E082DF76
:100580008D8360E070E0888199817CDF803738F06E
:100590008FE68A831B821C82DF91CF910895883178
:1005A00008F488E18A831B821C82DF91CF91089531
:1005B000CF93DF93EC01BC0194DFBE01CE01049622
:1005C00090DFBE01CE010896D2DFBE01CE010E96AD
:1005D000CEDFBE01CE014496DF91CF91C8CFCF933D
:1005E000DF93EC018D819A8187FD12C097FD1AC0BF
:1005F000890F8A8390E095958795959587958B834C
:1006000095958795959587958C83DF91CF910895E2
:10061000903170F762E070E08881998133DF8D83DB
:100620009A81E6CF63E070E0888199812BDF819524
:100630008D839A81DDCFCF93DF93EC0171DFCE0103
:1006400004966EDFCE010896CADFCE010E96C7DF94
:10065000CE014496DF91CF91C2CF0F931F93CF93DA
:10066000DF93EC018C0108591F4FCE01A1DF6A9680
:10067000C017D107D1F7DF91CF911F910F91089546
:100680009F92AF92BF92CF92DF92EF92FF920F9321
:100690001F93CF93DF9300D0CDB7DEB78C016C01F1
:1006A00088E6C80ED11C7801C701C5DF9AE1E90EC2
:1006B000F11CEC14FD04C0F3B12CC80104967C01BC
:1006C000AE014F5F5F4FBE016E5F7F4F8B2D70DDC0
:1006D0004A813981F80104C07A96EC15FD05A8F528
:1006E0009281929596959770941BDF01A01BB10B98
:1006F000AE0DBF1D12962C91229526952770231BB7
:1007000097FD919527FD2195923034F7223024F7FB
:10071000920FE90FF11D92848089A68805DD892D4D
:1007200003DD8A2D01DDB39480E4B812C9CF0F90A8
:100730000F90DF91CF911F910F91FF90EF90DF907D
:10074000CF90BF90AF909F900895A12C80E0912C06
:10075000E5CF8C01C80194DFCFEFDFE70DDD2197F6
:10076000E9F7F8CF30E050E070E045CD0F931F93EC
:10077000CF93DF938C01C0E4D0E0C80164DE219701
:10078000E1F7DF91CF911F910F9108950F931F9380
:10079000CF93DF93FC0160839C01255E3F4F328342
:1007A0002183EC0129968C010F5D1F4F60E1CE0182
:1007B00019DD2696C017D107C8F3DF91CF911F919D
:1007C0000F910895CF93DF9300D000D0CDB7DEB75F
:1007D0008C015C0183E0A80EB11C46E0442EF801B8
:1007E0003F966F01C80109969C838B8336967F01E3
:1007F00042963C0157E0552E41E2B801C5016FDD3C
:10080000F80161817281C5011EDDC5013CDD38E062
:10081000332EF601AB81BC81842D01900D928A9517
:10082000E1F7F701D601842D01900D928A95E1F749
:10083000F301D701842D01900D928A95E1F7B5015E
:10084000F80181819281DFDC212C2AC0AE014F5F4B
:100850005F4FBE016E5F7F4F822DAADC2A8124305C
:1008600020F0F52DF21B2F2FFA838981843020F0A0
:10087000952D981B892F9983821710F48A83282F2E
:10088000822F90E0820F911D820F911D880F991F7A
:100890000996800F911FD7DD2394F0E42F1661F0A5
:1008A000F8018081813091F2F80181819281CBDD64
:1008B0002394F0E42F12F4CF812C912C5DDC8FEF88
:1008C000881A980A9FEF89169906C1F73A9409F099
:1008D000A0CF92CF0F931F93CF93DF93FC01608340
:1008E000EC012996D283C1838C01075C1F4F60E124
:1008F000CE0178DC2696C017D107C8F3DF91CF91DF
:100900001F910F910895CF93DF9300D0CDB7DEB73D
:100910007C016C0123E0C20ED11C26E0B22E49E31B
:10092000B701C601DCDCF70161817281C6018BDC95
:10093000C601A9DC98E0A92E80E090E0D701A80FBD
:10094000B91FFD01BD96D3962B2D01900D922A95CE
:10095000E1F70697863DFFEF9F0781F7B601F701A4
:100960008181928150DC10E0AE014F5F5F4FBE018C
:100970006E5F7F4F812F1CDC8A81282F30E0280F8B
:10098000311D280F311D220F331F275F3F4FC70135
:10099000820F931F58DD1F5F103431F700E010E025
:1009A000EBDB0F5F1F4F0F3FFFEF1F07C9F7AA9445
:0409B00019F6B5CFB0
:00000001FF
