:100000000EC0189518951895189518951895189567
:10001000189518951895189518951895189500E045
:100020000DB90EB907BB08BB1FE010BD08BD09BD67
:100030000ABD02BF03BF10E215BF08BF09BF0BBF57
:1000400010E816BD10E016BD1FE51DBF11E01EBF74
:100050000FBF00C0B89A112410E002E6C80149D1D0
:10006000C80196D102D042D0FBCFC80166D1EC01C5
:10007000C80164D1E82ED990DD2031F0C8016D2D82
:10008000B0D2EA94C1F70895882708D007D006D0E7
:1000900005D004D003D0EA9471F7089568E0880F82
:1000A00078F0C09A00000000000000000000C09836
:1000B000000000000000000000000000000013C06D
:1000C000C09A0000000000000000000000000000D6
:1000D00000000000000000000000C09800000000C8
:1000E0000000000000006A95D1F608950F931F9359
:1000F0002F9322E010E000E00A95F1F71A95E1F75E
:100100002A95D1F72F911F910F910895FC018281BB
:100110000895860F911DFC01828108954091600031
:10012000FC015AE1540F80E001C0492F91E0940F87
:1001300090936000219130E0240F311D4AE524277F
:10014000820F9513F2CF6230710581F06330710533
:1001500049F06130710509F008958F70853060F4C1
:1001600085E00895837039F481E0089587708230C6
:1001700098F782E0089508950895CF93DF93EC01F6
:10018000CB017983688360E070E0C8DF8A8361E037
:1001900070E088819981C2DF8B838A81803F28F05B
:1001A0008FEE8A83DF91CF9108958031D8F780E177
:1001B0008A83DF91CF910895CF93DF93EC018B81F8
:1001C0009A81282F219587FD14C0921728F4890F52
:1001D0008A83DF91CF91089561E070E088819981F1
:1001E0009DDF81958B839A81890F8A83DF91CF91DF
:1001F0000895921760F761E070E0888199818EDF41
:100200008B839A81E4CFCF93DF93EC01CB01798389
:10021000688362E070E082DF8D8360E070E0888157
:1002200099817CDF803738F08FE68C831B821A82BD
:10023000DF91CF910895883108F488E18C831B8287
:100240001A82DF91CF910895CF93DF93EC01BC0127
:1002500094DFBE01CE01049690DFBE01CE01089668
:10026000D2DFBE01CE010E96CEDFBE01CE01449696
:10027000DF91CF91C8CFCF93DF93EC018D819C812B
:1002800087FD12C097FD1AC0890F8C8390E0959569
:100290008795959587958B83959587959595879562
:1002A0008A83DF91CF910895903170F762E070E01A
:1002B0008881998133DF8D839C81E6CF63E070E094
:1002C000888199812BDF81958D839C81DDCFCF93B0
:1002D000DF93EC0171DFCE0104966EDFCE0108964C
:1002E000CADFCE010E96C7DFCE014496DF91CF91D3
:1002F000C2CF0F931F93CF93DF938C01EC01C058B3
:10030000DF4FCE01A1DFC80186569F4F9DDFC80198
:100310008C549F4F99DFF8011192EC17FD07E0F321
:10032000DF91CF911F910F910895FC0180589F4F4D
:100330001192E817F907E0F30895089580E890E036
:100340000895342F3870330F330F330F4770440F35
:10035000440F432B562F56705695542B362F38701A
:10036000330F330F352BFC01E30FF11D37FDFA95E9
:100370008081982F60FF05C09F7011F4282B208387
:100380000895907FE9F72295207F282B2083F8CFCE
:100390002F923F924F925F926F927F928F929F9295
:1003A000AF92BF92CF92DF92EF92FF920F931F9383
:1003B000CF93DF9300D000D01F92CDB7DEB76C0192
:1003C000FC015C0120E8A20EB11C1192EA15FB05AC
:1003D000E0F336013EEC630E711C8501512CC50122
:1003E00004964C012AC0352D3860332E21105FC091
:1003F000252D2C6040E06C81C601A3DFEE24E39440
:10040000232D41E06C81C6019CDFFFE04F1671F0A7
:100410004C804394232D40E0642DC60192DF352D9E
:100420003460232F4E2D642DC6018BDF5394065E5E
:100430001F4F0615170508F08DC0C80148DFF801E9
:100440008281282F30E0359527953595279535956C
:100450002795359527953D832C834C80EA19FB0918
:10046000E80DF91DE280F12CF594E794F594E794FA
:10047000F594E794F594E7942E2C442009F4B3CF37
:10048000E11040C0E52DE8603E2E5C8151502E2FDA
:1004900040E0652FC6015B8354DF752D74605B817E
:1004A000272F41E04E0D652FC6014BDF9FCF3FEF59
:1004B0003E0D3983232D432F6C81C60142DF252D4C
:1004C0002C604E2D6C81C6013CDF8FE028125AC093
:1004D0002FE0421609F4AACF352D34604C804394A6
:1004E000232F4981642DC6013A832BDF232D4E2D06
:1004F000642DC60126DF3A819FE0291609F496CFC4
:10050000E3948FCF752D74605C8151503FEF3E0DA9
:100510003983272F432F652FC6015B837A8311DF31
:10052000852D8860382E282F4E2D5B81652FC601C2
:1005300008DF5B817A819FE0E912B2CF232D4EE084
:100540006C81C601FEDE252D2C604FE06C81C6015A
:10055000F8DEBECF0F900F900F900F900F90DF91AD
:10056000CF911F910F91FF90EF90DF90CF90BF90B0
:10057000AF909F908F907F906F905F904F903F9043
:100580002F900895232D41E04E0D6C81C601D9DED8
:100590003FE04312A1CF4ACFCF93DF93462F437062
:1005A00050E09A01220F331F240F351F220F331FF3
:1005B000220F331F240F351F220F331FE901C058AC
:1005C000DF4FC80FD91F6C70669566956150C60FD6
:1005D000D11D888963DD8A8561DD8E89DF91CF91A8
:1005E0005DCD1F93CF93DF93EC01162F862F807F75
:1005F000B9F070E0759567957595679575956795F0
:1006000075956795CE01C8DF812F8F7091F480E0DA
:1006100045DD80E043DD80E0DF91CF911F913ECD4D
:1006200080E03CDD80E03ADD80E038DD812F8F70B6
:0E06300071F3612FCE01DF91CF911F91ADCFFD
:00000001FF
