:1000000033C0000073C00000189500001895000070
:10001000189500001895000018950000189500002C
:10002000189500001895000018950000189500001C
:10003000189500001895000018950000189500000C
:1000400018950000189500001895000018950000FC
:1000500018950000189500001895000018950000EC
:10006000189500001895000000E004B905B907B91B
:1000700008B90AB914E01BB905BB11E01DBB04BDEA
:1000800005BD06BD07BD08BD0CBD0DBD13BF05BF39
:100090001FEE1093640012E01093690000936E004D
:1000A0000093B8000093B9001EEF1093BA000093BC
:1000B000BC000093BD000093C0000093C10016E097
:1000C0001093C2000093C4000093C50011E015BF57
:1000D00010E015BF10E81093610010E0109361006C
:1000E0001FEF1DBF18E01EBF0FBF12C020E2112777
:1000F00000270A95F1F71A95E1F72A95D1F71FEF36
:100100001DBF18E01EBF10E01FBF00E40ABF07C0FC
:10011000209AC2E0D1E0ECE4F1E0E883F983112415
:10012000C2E0D1E0E881F981A591B5910A2E0B2AB0
:1001300021F4ECE4F1E0A591B591E883F983FD01A8
:1001400004E011E0789409958895FECFAA00AE00EE
:10015000B5000000C80143D1C80145C3C8016FE71D
:1001600040E020E04AD3C8014DC3C80160E040E050
:100170002FE743D3C80146C368E0880F58F0289A98
:1001800000000000000000002898000000000000AF
:1001900000000DC0289A00000000000000000000D0
:1001A00000000000000000002898000000006A9590
:1001B00021F708950F931F932F9322E010E000E0A2
:1001C0000A95F1F71A95E1F72A95D1F72F911F912A
:1001D0000F910895FC0182810895860F911DFC0105
:1001E0008281089540910001FC015AE1540F80E0A2
:1001F00001C0492F91E0940F90930001219130E0CC
:10020000240F311D4AE52427820F9513F2CF623067
:10021000710581F06330710549F06130710509F0B5
:1002200008958F70853060F485E00895837039F407
:1002300081E008958770823098F782E008950895EC
:100240000895CF93DF93EC01CB017983688360E05D
:1002500070E00E94F2008A8361E070E088819981F9
:100260000E94F2008B838A81803F28F08FEE8A8380
:10027000DF91CF9108958031D8F780E18A83DF91B3
:10028000CF910895CF93DF93EC018B819A81282F32
:10029000219587FD15C0921728F4890F8A83DF9175
:1002A000CF91089561E070E0888199810E94F20009
:1002B00081958B839A81890F8A83DF91CF910895ED
:1002C000921758F761E070E0888199810E94F200EE
:1002D0008B839A81E2CFCF93DF93EC01CB017983BB
:1002E000688362E070E00E94F2008D8360E070E05D
:1002F000888199810E94F200803738F08FE68C83E4
:100300001B821A82DF91CF910895883108F488E129
:100310008C831B821A82DF91CF910895CF93DF9354
:10032000EC01BC010E942101BE01CE0104960E9495
:100330002101BE01CE0108960E946B01BE01CE01D3
:100340000E960E946B01BE01CE014496DF91CF91C3
:100350000C946B01CF93DF93EC018D819C8187FD21
:1003600012C097FD1BC0890F8C8390E095958795EF
:10037000959587958B8395958795959587958A8390
:10038000DF91CF910895903170F762E070E088813D
:1003900099810E94F2008D839C81E5CF63E070E03B
:1003A000888199810E94F20081958D839C81DBCFA9
:1003B000CF93DF93EC010E944201CE0104960E948C
:1003C0004201CE0108960E94AA01CE010E960E941B
:1003D000AA01CE014496DF91CF910C94AA01CF924D
:1003E000DF92EF92FF920F931F93CF93DF936C01F5
:1003F0008C011395E8017C0180E3E81A8EEFF80A7E
:10040000CE010E948E016A96CE15DF05C9F7F6016E
:100410001192E017F107E0F3DF91CF911F910F9157
:10042000FF90EF90DF90CF900895FC01939511928B
:10043000E817F907E0F30895342F3770330F330FBF
:10044000330F48704295407F432B362F3770432B34
:100450006870660F660F660F642B860F911DFC0196
:1004600020830895CF93DF93262F2F73EC013AE179
:10047000239FC00DD11D1124D39562956695669575
:1004800063706150C60FD11D88890E94BC008A85A7
:100490000E94BC008E89DF91CF910C94BC004F92DA
:1004A0005F926F927F928F929F92AF92BF92CF9204
:1004B000DF92EF92FF920F931F93CF93DF938C0104
:1004C0007C01F394FC011192EE15FF05E0F3280185
:1004D00080E3481A8EEF580AE701B12CC701049651
:1004E0006C0177C0B22FB770BB0FBB0FBB0F922F41
:1004F0009870992E929480EF98228B2D8068A82E68
:10050000A111CAC0942F9770792E842F887090E023
:10051000880F991F880F991F880F991F682E8729A8
:100520008B2B8929F801E80FF11D8B2D806C8083BE
:1005300061E0620F862F877090E0880F991F880F07
:10054000991F880F991F982F687070E062957295B7
:10055000707F7627607F7627762F862B86298729DE
:10056000F801E80FF11DA0828FE0881661F1AA233F
:1005700009F4E3C06FEF620F9B2D9064892E4F5FEB
:10058000842F8770487050E0440F551F440F551F4B
:10059000440F551F542F482B962F9770990F990F82
:1005A000990F942B68706295607F692BF801E60FB4
:1005B000F11D8082B42BB929F801EB0FF11DA08247
:1005C000AF3009F005C1B3946A96C415D50508F09B
:1005D000D7C0CE010E94D8014A8150E05595479579
:1005E000559547955595479555954795842EFE0108
:1005F000EE19FF09EC0DFD1D228130E035952795A0
:10060000359527953595279535952795A22F8820DF
:1006100009F468CF21116FC08FEF840F982F977066
:10062000692E8870782E770C770C770C8B2D80686C
:10063000A82E822F877090E0880F991F880F991F2E
:10064000880F991FB82F622F687070E062957295BD
:10065000707F7627607F7627962E862B86298729BE
:10066000F801E80FF11DA082AF30B1F081E0820FF8
:10067000982F98709295907F8770880F880F880FB9
:10068000892B86298729F801E80FF11D8B2D8064BD
:100690008083AA2309F436CF6FEF620F842F87700F
:1006A000782E842F887090E0880F991F880F991FEB
:1006B000880F991F682E8729762F7770770F770F0D
:1006C000770F782B962F98709295907F972BF80143
:1006D000E90FF11DA0828B2B8929F801E80FF11D8C
:1006E0008B2D806C8083AF3009F022CF8FE088168D
:1006F00009F469CF41CF6FEF620F8FEF840F982F0E
:100700009770692E887090E0880F991F880F991F45
:10071000880F991F782E8629962F9770990F990F19
:10072000990F982B68706295607F692BF801E60F2E
:10073000F11D8B2D8064808379CF4F5F842F87706C
:10074000487050E0440F551F440F551F440F551F6C
:10075000542F482B4B2B4929F801E40FF11DA0829F
:100760002B2D2064822E852B892B872BF801E80FF7
:10077000F11D8082B3946A96C415D50508F429CF7B
:10078000E80106C0C8010E943202CE15DF0578F4E8
:1007900069916111F7CF80E00E94BC0080E00E9467
:1007A000BC0080E00E94BC00CE15DF0588F3DF911D
:1007B000CF911F910F91FF90EF90DF90CF90BF905E
:1007C000AF909F908F907F906F905F904F90089523
:1007D0002F5F922F9770990F990F990F722F787042
:1007E0007295707FC0CFEC01CE010E944F022FEFB7
:1007F0003FEF21503109E9F7F7CFFC0160834183D6
:10080000228308950F931F93CF93DF93EC0100E0B1
:1008100011E089810E94BC0088810E94BC008A810D
:100820000E94BC0001501109A1F7DF91CF911F91E7
:040830000F91089587
:00000001FF
