:1000000033C00000189500001895000018950000F6
:10001000189500001895000018950000189500002C
:10002000189500001895000018950000189500001C
:10003000189500001895000018950000189500000C
:1000400018950000189500001895000018950000FC
:1000500018950000189500001895000018950000EC
:10006000189500001895000000E004B905B907B91B
:1000700008B90AB90BB90DBB0CBD0DBD11E013BF1A
:1000800005BF1FEE10936400009369000093B80051
:100090000093B9001EEF1093BA000093BC000093C8
:1000A000BD000093C0000093C10016E01093C20091
:1000B0000093C4000093C50011E015BF10E015BF08
:1000C00010E81093610010E0109361001FEF1DBF56
:1000D00018E01EBF0FBF00C0209A05E0B02E00EC54
:1000E000A02E05E0D02E00E0C02EC8D0EBD003D06B
:1000F00088D0B4D0FBCFFF93EF93DF93CF933F93A0
:100100001F932F93F60100EC332731930A95E9F7FB
:10011000F601E5010ED0F6012A960BD0F6012A96DB
:1001200008D02F911F913F91CF91DF91EF91FF91D7
:100130000895188129811695169516951695169588
:1001400026952695322F2695269526953873312BA0
:10015000432F330F340FE30F08F4F3954C815D8187
:100160006E814083518362834695469546955695A8
:1001700056955695669566956695103029F0339795
:100180004083518362833396173029F0339640833E
:10019000518362833397203029F0789740835183CD
:1001A00062837896273029F0789640835183628362
:1001B0007897469556956695103039F0203029F09D
:1001C0007B974083518362837B96173039F02730C9
:1001D00029F07B964083518362837B97173039F0F7
:1001E000203029F0759740835183628375961030D3
:1001F00039F0273029F075964083518362837597D3
:100200000895FF93EF932F931F930F93F60100EC44
:10021000219118E0220F58F0289A000000000000F9
:100220000000289800000000000000000DC0289A7F
:1002300000000000000000000000000000000000BE
:1002400000002898000000001A9521F70A9501F790
:100250000F911F912F91EF91FF9108950F931F938D
:100260002F9322E010E800E00A95F1F71A95E1F7E4
:100270002A95D1F72F911F910F910895FF93EF9336
:10028000DF93CF930F930F92E501F2E0E6EA0EE1E0
:10029000059009920A95E1F70F900F91CF91DF91A8
:1002A000EF91FF910895424605F11252130508F3AC
:1002B000D7DD0CF4531C610508F3AA7708FA116026
:1002C000220508F3DF93CF932F931F930F93E5013C
:1002D0000AD02A9608D02A9606D00F911F912F9106
:1002E000CF91DF91089508811A8117D008831A836E
:1002F00009811B8112D009831B830C811F8119D0B6
:100300000C831F830D81188514D00D8318870E81EF
:1003100019850FD00E8319870895003118F41BD06A
:10032000102D05C0013F18F016D00094102D010FBC
:100330000895003128F40FD006940694102D09C0BA
:10034000013738F008D00694069406940694009479
:10035000102D010F08950F9308D00FE000210530F4
:1003600008F405E0002E0F910895DF93CF930F93CB
:100370001F93E5011EE10991079501950795000E70
:0E0380001A95C9F71F910F91CF91DF91089543
:00000001FF
