:1000000033C000007FC00000189500001895000064
:10001000189500001895000018950000189500002C
:10002000189500001895000018950000189500001C
:10003000189500001895000018950000189500000C
:1000400018950000189500001895000018950000FC
:1000500018950000189500001895000018950000EC
:10006000189500001895000000E004B905B907B91B
:1000700008B90AB914E01BB905BB11E01DBB04BDEA
:1000800005BD06BD07BD08BD0CBD0DBD13BF05BF39
:100090001FEE1093640012E01093690000936E004D
:1000A000009378000093790000937A0000937B001E
:1000B00000937C0000937E000093B8000093B90089
:1000C0001EEF1093BA000093BC000093BD00009394
:1000D000C0000093C10016E01093C2000093C4005A
:1000E0000093C50011E015BF10E015BF10E8109394
:1000F000610010E0109361001FEF1DBF18E01EBFEC
:100100000FBF12C020E2112700270A95F1F71A95B8
:10011000E1F72A95D1F71FEF1DBF18E01EBF10E0D1
:100120001FBF00E40ABF07C0209AC2E0D1E0E4E6A6
:10013000F1E0E883F9831124C2E0D1E0E881F9819C
:10014000A591B5910A2E0B2A21F4E4E6F1E0A591E0
:10015000B591E883F983FD0104E011E078940995F5
:100160008895FECFBB00BF00C400C900CE00D500FB
:10017000DC00E3000000C801C8D2C80148C3C801C0
:1001800060E066D3C80181C3C80161E061D3C801E2
:100190007CC3C80161E009D4C80121C4C8016FEF64
:1001A00040E020E03FD3C80142C3C80160E04FEF08
:1001B00020E038D3C8013BC3C80160E040E02FEF26
:1001C00031D3C80134C3C8016FE34FE32FE32AD30F
:1001D000C8012DC368E0880F58F0289A000000007D
:1001E00000000000289800000000000000000DC082
:1001F000289A00000000000000000000000000003D
:10020000000000002898000000006A9521F708957A
:10021000000000000000000008950F931F932F932B
:1002200022E010E000E00A95F1F71A95E1F72A952F
:10023000D1F72F911F910F910895660F660F660FEA
:10024000862BFA0180830895982F9770FB01908385
:1002500090E0959587959595879595958795877065
:10026000FA0180830895CF93DF93C0ECD0E080E063
:100270000E94EA002197D9F7DF91CF910895FC0100
:1002800070E07583648373836283718360830895F0
:10029000FC017183608353834283358324830895F3
:1002A000FC01DB01208131818D919C911197820F9E
:1002B000931F918380832281338112968D919C912B
:1002C0001397820F931F9383828324813581149621
:1002D0008D919C911597820F931F95838483089528
:1002E000FC01DB01808191812D913C911197821B52
:1002F000930B918380838281938112962D913C91FF
:100300001397821B930B9383828384819581149628
:100310002D913C911597821B930B958384830895AF
:10032000FC018081918197FD21C0959587959595D8
:10033000879595958795918380838281938197FD99
:1003400019C09595879595958795959587959383EC
:1003500082838481958197FD0BC0959587959595AE
:100360008795959587959583848308950796DDCF26
:100370000796F3CF0796E5CF0F931F93CF93DF93A5
:10038000FC0150E04115510509F46CC09091000149
:10039000DB01EB01C40FD51F892F00E011E0180F1E
:1003A000109300012D9130E0280F311D8AE5282798
:1003B000020F812FAC17BD0789F7940F802F8F7321
:1003C000803108F456C00073802F90E091838083C1
:1003D00090910001EB01A0E0B0E010E081E0890F16
:1003E00080930001299130E0290F311D9AE52927DA
:1003F000120F1196982FA417B50780F3912F9F73B2
:100400009031E0F11073212F30E033832283EB0130
:10041000A0E0B0E070E091E0980F90930001299186
:1004200030E0280F311D8AE52827720F1196892F99
:10043000A417B50780F3872F8F73803148F480E1CC
:1004400090E095838483DF91CF911F910F91089560
:100450007073872F90E095838483DF91CF911F91F4
:100460000F91089580E190E091838083938382834C
:10047000E6CF20E130E031832083ACCF20E130E0D3
:1004800033832283C4CF50E041155105C9F09091C8
:100490000001FB01640F751F80E051E0590F50937C
:1004A0000001219130E0290F311D9AE52927820FA3
:1004B000952FE617F70789F7982F9F73903110F45F
:1004C00080E1089580730895CF93DF93EC012A8132
:1004D0003B813327C901959587950E94EA002881C1
:1004E00039813327C901959587950E94EA008C814F
:1004F0009D81992795958795DF91CF910C94EA007E
:10050000FC0182810895860F911DFC01828108956E
:1005100040910001FC015AE1540F80E091E0940FFA
:1005200090930001219130E0240F311D4AE52427EA
:10053000820F492F9513F2CF6230710581F063303D
:10054000710521F06130710529F008958370E9F794
:1005500081E008958F708530C0F785E00895877039
:10056000823098F782E00895CF93DF93EC01CB01BE
:100570007983688360E070E00E9488028A8361E08A
:1005800070E0888199810E9488028B838A81803FF4
:1005900028F08FEE8A83DF91CF9108958031D8F7CC
:1005A00080E18A83DF91CF910895CF93DF93EC01AF
:1005B0009B813A81892F819597FD16C0381728F4C1
:1005C000930F9A83DF91CF91089561E070E0888165
:1005D00099810E94880281958B833A81982F930F8D
:1005E0009A83DF91CF910895381750F761E070E05A
:1005F000888199810E948802982F8B833A81E0CF6D
:10060000CF93DF93EC01CB017983688362E070E0E4
:100610000E9488028D8360E070E0888199810E9449
:100620008802803738F08FE68A831B821C82DF9134
:10063000CF910895883108F488E18A831B821C8257
:10064000DF91CF910895CF93DF93EC01BC010E941D
:10065000B402BE01CE0104960E94B402BE01CE01D6
:1006600008960E940003BE01CE010E960E94000370
:10067000BE01CE014496DF91CF910C940003CF933D
:10068000DF93EC018D819A8187FD13C097FD1CC01B
:10069000980F9A83292F30E0359527953595279522
:1006A0002B8335952795359527952C83DF91CF9111
:1006B0000895903168F762E070E0888199810E9426
:1006C00088028D839A81E4CF63E070E0888199810C
:1006D0000E94880281958D839A81DACFCF93DF9330
:1006E000EC010E94D502CE0104960E94D502CE01F3
:1006F00008960E943F03CE010E960E943F03CE0152
:100700004496DF91CF910C943F030F931F93CF93A7
:10071000DF93EC018C0108591F4FCE010E94230387
:100720006A96C017D107C9F7DF91CF911F910F913A
:1007300008959F92AF92BF92CF92DF92EF92FF9275
:100740000F931F93CF93DF9300D0CDB7DEB78C010B
:100750006C0188E6C80ED11C7801C7010E946E03A7
:100760009AE1E90EF11CEC14FD04B8F3B12CC801B8
:1007700006967C01AE014F5F5F4FBE016E5F7F4FFB
:100780008B2D0E9424013A818981F701A80106C0BE
:10079000465E5F4F7A964C155D05A8F5DF0114970C
:1007A0009C91929596959770931B20812295269502
:1007B0002770281B97FD919527FD2195923044F7CE
:1007C000223034F7920FFA01E90FF11D92848089EB
:1007D000A6880E94EA00892D0E94EA008A2D0E94C4
:1007E000EA00B39490E4B912C5CF0F900F90DF9157
:1007F000CF911F910F91FF90EF90DF90CF90BF901E
:10080000AF909F900895A12C80E0912CE2CF8C01B5
:10081000C8010E949903CFEFDFE70E9408012197EA
:10082000E1F7F6CF30E050E070E00C9448010F9310
:100830001F93CF93DF938C01C0E4D0E0C8010E94E6
:1008400064022197D9F7DF91CF911F910F910895FD
:100850000F931F93CF93DF93FC0160839C01255E70
:100860003F4F32832183EC0129968C010F5D1F4F8E
:1008700060E1CE010E943F012696C017D107C0F368
:10088000DF91CF911F910F910895CF93DF9300D007
:1008900000D0CDB7DEB78C015C0183E0A80EB11C9F
:1008A00076E0472EF8013F966F01C80109969C83B8
:1008B0008B8336967F0142963C01E7E05E2E41E253
:1008C000B801C5010E94BC01F80161817281C501B6
:1008D0000E947001C5010E94900168E0362EF60169
:1008E000AB81BC81842D01900D928A95E1F7F701CF
:1008F000D601842D01900D928A95E1F7F301D7017D
:10090000842D01900D928A95E1F7B501F80181815E
:1009100092810E945001212C2CC0AE014F5F5F4F8D
:10092000BE016E5F7F4F822D0E9424012A812430F8
:1009300020F0F52DF21B2F2FFA838981843020F0CF
:10094000952D981B892F9983821710F48A83282F5D
:1009500030E0C901880F991F820F931F880F991FDC
:100960000996800F911F0E9464022394F0E42F16D1
:1009700069F0F8018081813081F2F80181819281F2
:100980000E9464022394F0E42F12F3CF812C912C67
:100990000E9408018FEF881A980A9FEF891699061E
:1009A000B9F73A9431109BCF8ACF0F931F93CF930F
:1009B000DF93FC016083EC012996D283C1838C0113
:1009C000075C1F4F60E1CE010E943F012696C017D1
:1009D000D107C0F3DF91CF911F910F910895CF936D
:1009E000DF9300D0CDB7DEB78C016C0183E0C80E79
:1009F000D11CF801F3965F01C80109967C0176E0ED
:100A0000972E49E3B801C6010E94BC01F80161813B
:100A10007281C6010E947001C6010E94900168E0C7
:100A2000862ED501CD010697FC01292D01900D924E
:100A30002A95E1F7DC018E159F05A1F7B601F801B3
:100A4000818192810E945001712CAE014F5F5F4FF6
:100A5000BE016E5F7F4F872D0E9424012A8130E006
:100A6000C901880F991F280F391F220F331FC90191
:100A70000996800F911F0E9464027394F0E47F1224
:100A8000E4CF612C712C0E9408018FEF681A780A5C
:100A90009FEF69167906B9F78A948110C2CFB1CF5A
:00000001FF
