:100000000EC02AC01895189518951895189518952A
:10001000189518951895189518951895189500E045
:100020000DB90EB907BB14E018BB1FE010BD08BD29
:1000300009BD0ABD02BF03BF12E215BF08BF09BF59
:1000400010E41BBF10E816BD10E016BD1FE51DBF74
:1000500012E01EBF0FBF12C020E2112700270A9531
:10006000F1F71A95E1F72A95D1F71FE51DBF12E0C8
:100070001EBF10E01FBF00E40ABF07C0B89AC2E667
:10008000D0E0E8EBF0E0E883F9831124C2E6D0E0A9
:10009000E881F981A591B5910A2E0B2A21F4E8EBAC
:1000A000F0E0A591B591E883F983FD0104E610E045
:1000B000789409958895FECF600064006B0000007D
:1000C000C8013BD1C8013FC3C8016FE740E020E051
:1000D00043D3C80146C3C80160E040E02FE73CD3EA
:1000E000C8013FC368E0880F78F0C09A00000000A4
:1000F000000000000000C0980000000000000000A8
:1001000000000000000013C0C09A000000000000C2
:1001100000000000000000000000000000000000DF
:100120000000C098000000000000000000006A9578
:10013000D1F608950F931F932F9322E010E000E073
:100140000A95F1F71A95E1F72A95D1F72F911F91AA
:100150000F910895FC0182810895860F911DFC0185
:100160008281089540916000FC015AE1540F80E0C3
:1001700001C0492F91E0940F90936000219130E0ED
:10018000240F311D4AE52427820F9513F2CF6230E8
:10019000710581F06330710549F06130710509F036
:1001A00008958F70853060F485E00895837039F488
:1001B00081E008958770823098F782E0089508956D
:1001C0000895CF93DF93EC01CB017983688360E0DE
:1001D00070E0C8DF8A8361E070E088819981C2DFC6
:1001E0008B838A81803F28F08FEE8A83DF91CF91C5
:1001F00008958031D8F780E18A83DF91CF91089507
:10020000CF93DF93EC018B819A81282F219587FD75
:1002100014C0921728F4890F8A83DF91CF91089533
:1002200061E070E0888199819DDF81958B839A815F
:10023000890F8A83DF91CF910895921760F761E06B
:1002400070E0888199818EDF8B839A81E4CFCF9390
:10025000DF93EC01CB017983688362E070E082DF99
:100260008D8360E070E0888199817CDF803738F091
:100270008FE68C831B821A82DF91CF91089588319B
:1002800008F488E18C831B821A82DF91CF91089554
:10029000CF93DF93EC01BC0194DFBE01CE01049645
:1002A00090DFBE01CE010896D2DFBE01CE010E96D0
:1002B000CEDFBE01CE014496DF91CF91C8CFCF9360
:1002C000DF93EC018D819C8187FD12C097FD1AC0E0
:1002D000890F8C8390E095958795959587958B836D
:1002E00095958795959587958A83DF91CF91089508
:1002F000903170F762E070E08881998133DF8D83FF
:100300009C81E6CF63E070E0888199812BDF819545
:100310008D839C81DDCFCF93DF93EC0171DFCE0124
:1003200004966EDFCE010896CADFCE010E96C7DFB7
:10033000CE014496DF91CF91C2CFCF92DF92EF9260
:10034000FF920F931F93CF93DF936C018C01139552
:10035000E8017C0180E3E81A8EEFF80ACE0198DF0D
:100360006A96CE15DF05D1F7F6011192E017F10775
:10037000E0F3DF91CF911F910F91FF90EF90DF900D
:10038000CF900895FC0193951192E817F907E0F3D7
:100390000895342F3770330F330F330F4870429561
:1003A000407F432B362F3770432B6870660F660FE4
:1003B000660F642B860F911DFC0120830895CF9357
:1003C000DF93462F4F7350E09A01220F331F240F03
:1003D000351F220F331F220F331F240F351F220F0B
:1003E000331FE901D395C80FD91F629566956695AD
:1003F00063706150C60FD11D888974DE8A8572DEF4
:100400008E89DF91CF916ECE4F925F926F927F92E5
:100410008F929F92AF92BF92CF92DF92EF92FF9214
:100420000F931F93CF93DF938C017C01F394FC0116
:100430001192EE15FF05E0F3280180E3481A8EEFD4
:10044000580AE701B12CC70104966C0177C0B22F9E
:10045000B770BB0FBB0FBB0F922F9870992E929461
:1004600050EF95228B2D8068A82EA111C9C0942F22
:100470009770792E842F887090E0880F991F880FCD
:10048000991F880F991F682E87298B2B8929F801BE
:10049000E80FF11D8B2D806C808361E0620F862F49
:1004A000877090E0880F991F880F991F880F991FF8
:1004B000982F687070E062957295707F7627607FE4
:1004C0007627762F862B86298729F801E80FF11DDC
:1004D000A0828FE0881661F1AA2309F4E2C06FEFD1
:1004E000620F9B2D9064892E4F5F842F8770487018
:1004F00050E0440F551F440F551F440F551F542FF4
:10050000482B962F9770990F990F990F942B68701D
:100510006295607F692BF801E60FF11D8082B42B94
:10052000B929F801EB0FF11DA082AF3009F000C12D
:10053000B3946A96C415D50508F0D6C0CE01EBDE9B
:100540004A8150E05595479555954795559547955E
:1005500055954795842EFE01EE19FF09EC0DFD1D02
:10056000228130E035952795359527953595279546
:1005700035952795A22F442309F469CF21116FC027
:100580008FEF840F982F9770692E8870782E770CD4
:10059000770C770C8B2D8068A82E822F877090E0C7
:1005A000880F991F880F991F880F991FB82F622FE6
:1005B000687070E062957295707F7627607F76270D
:1005C000962E862B86298729F801E80FF11DA08237
:1005D000AF30B1F081E0820F982F98709295907FA4
:1005E0008770880F880F880F892B86298729F80143
:1005F000E80FF11D8B2D80648083AA2309F437CF87
:100600006FEF620F842F8770782E842F887090E0B0
:10061000880F991F880F991F880F991F682E8729A7
:10062000762F7770770F770F770F782B962F98703C
:100630009295907F972BF801E90FF11DA0828B2BEB
:100640008929F801E80FF11D8B2D806C8083AF3074
:1006500009F023CF8FE0881609F46ACF42CF6FEFFD
:10066000620F8FEF840F982F9770692E887090E03B
:10067000880F991F880F991F880F991F782E862938
:10068000962F9770990F990F990F982B6870629514
:10069000607F692BF801E60FF11D8B2D806480834C
:1006A00079CF4F5F842F8770487050E0440F551FFB
:1006B000440F551F440F551F542F482B4B2B4929CE
:1006C000F801E40FF11DA0822B2D2064822E852BD2
:1006D000892B872BF801E80FF11D8082B3946A966D
:1006E000C415D50508F42ACFE80105C0C80167DEA6
:1006F000CE15DF0560F469916111F8CF80E0F2DC7E
:1007000080E0F0DC80E0EEDCCE15DF05A0F3DF91C9
:10071000CF911F910F91FF90EF90DF90CF90BF90FE
:10072000AF909F908F907F906F905F904F900895C3
:100730002F5F922F9770990F990F990F722F7870E2
:100740007295707FC4CFEC01CE015EDE2FEF3FEFDC
:1007500021503109E9F7F8CFFC01608341832283FE
:1007600008950F931F93CF93DF93EC0100E011E006
:100770008981B8DC8881B6DC8A81B4DC015011093A
:0C078000B9F7DF91CF911F910F91089500
:00000001FF
