:1000000033C00000189500001895000018950000F6
:10001000189500001895000018950000189500002C
:10002000189500001895000018950000189500001C
:10003000189500001895000018950000189500000C
:1000400018950000189500001895000018950000FC
:1000500018950000189500001895000018950000EC
:10006000189500001895000000E004B905B907B91B
:1000700008B90AB90BB905BB0DBB04BD05BD06BD6A
:1000800007BD08BD0CBD0DBD11E013BF05BF1FEEC0
:10009000109364000093690000936E000093B80011
:1000A0000093B9001EEF1093BA000093BC000093B8
:1000B000BD000093C0000093C10016E01093C20081
:1000C0000093C4000093C50011E015BF10E015BFF8
:1000D00010E81093610010E0109361001FEF1DBF46
:1000E00018E01EBF0FBF00C0209A112411E002E0EB
:1000F000C80151D1C801A3D102D038D0FBCFC8016B
:1001000071D1EC01C8016FD1E82ED990DD2031F01A
:10011000C8016D2DC5D2EA94C1F70895882708D08B
:1001200007D006D005D004D003D0EA9471F7089523
:1001300068E0880F58F0289A0000000000000000D6
:10014000289800000000000000000DC0289A000060
:10015000000000000000000000000000000000009F
:100160002898000000006A9521F708950F931F93C7
:100170002F9322E010E000E00A95F1F71A95E1F7DD
:100180002A95D1F72F911F910F910895FC0182813B
:100190000895860F911DFC01828108954091000110
:1001A000FC015AE1540F80E001C0492F91E0940F07
:1001B00090930001219130E0240F311D4AE524275E
:1001C000820F9513F2CF6230710581F063307105B3
:1001D00049F06130710509F008958F70853060F441
:1001E00085E00895837039F481E008958770823046
:1001F00098F782E0089508950895CF93DF93EC0176
:10020000CB017983688360E070E00E94CE008A832E
:1002100061E070E0888199810E94CE008B838A81A1
:10022000803F28F08FEE8A83DF91CF91089580314F
:10023000D8F780E18A83DF91CF910895CF93DF9340
:10024000EC018B819A81282F219587FD15C092178B
:1002500028F4890F8A83DF91CF91089561E070E0DF
:10026000888199810E94CE0081958B839A81890F24
:100270008A83DF91CF910895921758F761E070E07B
:10028000888199810E94CE008B839A81E2CFCF939F
:10029000DF93EC01CB017983688362E070E00E9418
:1002A000CE008D8360E070E0888199810E94CE004D
:1002B000803738F08FE68C831B821A82DF91CF91D2
:1002C0000895883108F488E18C831B821A82DF91BB
:1002D000CF910895CF93DF93EC01BC010E94FD0004
:1002E000BE01CE0104960E94FD00BE01CE0108961B
:1002F0000E944701BE01CE010E960E944701BE0139
:10030000CE014496DF91CF910C944701CF93DF93B8
:10031000EC018D819C8187FD12C097FD1BC0890F68
:100320008C8390E095958795959587958B8395958A
:100330008795959587958A83DF91CF910895903120
:1003400070F762E070E0888199810E94CE008D8311
:100350009C81E5CF63E070E0888199810E94CE00A6
:1003600081958D839C81DBCFCF93DF93EC010E943D
:100370001E01CE0104960E941E01CE0108960E9425
:100380008601CE010E960E948601CE014496DF9131
:10039000CF910C9486010F931F93CF93DF938C0121
:1003A000EC01C058DF4FCE010E946A01C801865699
:1003B0009F4F0E946A01C8018C549F4F0E946A019E
:1003C000F8011192EC17FD07E0F3DF91CF911F9137
:1003D0000F910895FC0180589F4F1192E817F9077B
:1003E000E0F30895089580E890E00895342F387080
:1003F000330F330F330F4770440F440F432B562FE7
:1004000056705695542B362F3870330F330F352BCB
:10041000FC01E30FF11D37FDFA958081982F60FFF5
:1004200005C09F7011F4282B20830895907FE9F771
:1004300090E1299F90011124282B2083F6CF2F9241
:100440003F924F925F926F927F928F929F92AF9264
:10045000BF92CF92DF92EF92FF920F931F93CF93B1
:10046000DF9300D000D01F92CDB7DEB76C01FC0146
:100470005C0120E8A20EB11C1192EA15FB05E0F325
:1004800036013EEC630E711C8501512CC5010496AA
:100490004C012EC0352D3860332E211066C0252D1D
:1004A0002C6040E06C81C6010E94F601EE24E394CA
:1004B000232D41E06C81C6010E94F601FFE04F163A
:1004C00081F04C804394232D40E0642DC6010E94AE
:1004D000F601352D3460232F4E2D642DC6010E9468
:1004E000F6015394065E1F4F0615170508F098C0D5
:1004F000C8010E94B401F8018281282F30E03595AF
:1005000027953595279535952795359527953D83DD
:100510002C834C80EA19FB09E80DF91DE280F12CCF
:10052000F594E794F594E794F594E794F594E794BB
:100530002E2C442009F4AECFE11046C0E52DE86032
:100540003E2E5C8151502E2F40E0652FC6015B830B
:100550000E94F601752D74605B81272F41E04E0DDE
:10056000652FC6010E94F60198CF3FEF3E0D3983FB
:10057000232D432F6C81C6010E94F601252D2C608E
:100580004E2D6C81C6010E94F6018FE0281260C0DA
:100590002FE0421609F4A5CF352D34604C804394EA
:1005A000232F4981642DC6013A830E94F601232D31
:1005B0004E2D642DC6010E94F6013A819FE0291656
:1005C00009F48FCFE39487CF752D74605C8151500F
:1005D0003FEF3E0D3983272F432F652FC6015B83E5
:1005E0007A830E94F601852D8860382E282F4E2DA3
:1005F0005B81652FC6010E94F6015B817A819FE0D5
:10060000E912ABCF232D4EE06C81C6010E94F601AA
:10061000252D2C604FE06C81C6010E94F601B8CFF9
:100620000F900F900F900F900F90DF91CF911F912F
:100630000F91FF90EF90DF90CF90BF90AF909F9081
:100640008F907F906F905F904F903F902F90089584
:10065000232D41E04E0D6C81C6010E94F6013FE062
:1006600043129ACF3ECFCF93DF93262F2370EC0116
:100670003AE1239FC00DD11D1124C058DF4F6C708B
:10068000669566956150C60FD11D88890E949800B5
:100690008A850E9498008E89DF91CF910C949800F2
:1006A0001F93CF93DF93EC01162F862F807FD9F015
:1006B00070E07595679575956795759567957595CE
:1006C0006795CE010E943303812F8F70C1F480E0C3
:1006D0000E94980080E00E94980080E0DF91CF9116
:1006E0001F910C94980080E00E94980080E00E9486
:1006F000980080E00E949800812F8F7041F3612F55
:0C070000CE01DF91CF911F910C943303C8
:00000001FF
